:100000000C944D000C94DE010C94DE010C94DE0186
:100010000C94DE010C94DE010C94DE010C94DE01E4
:100020000C94DE010C94DE010C94DE010C94DE01D4
:100030000C94DE010C94DE010C94E0010C94E201BE
:100040000C94DE010C94DE010C94DE010C94DE01B4
:100050000C94DE010C94DE010C94DE010C94DE01A4
:100060000C94DE010C94DE013C01AB00AB005F019F
:10007000E000700181019201AB00A301AB00AB0075
:10008000AB00AB00AB00AB00BA00F2004E010501C3
:100090002901AB00CD00AB00170111241FBECFEF2B
:1000A000D8E0DEBFCDBF0E9459000C94C401F89483
:0200B000FFCF80
:1000B200259A529A85B5846085BD85B58D7F85BDAB
:1000C20085B58E7F85BD16BC85B5877F85BD84B518
:1000D200826084BD84B584BD84B58F7B84BD84B5C4
:1000E2008F7784BD84B58F7E84BD84B58F7D84BDBA
:1000F200EEE6F0E08081826080838081846080838C
:100102000E94B4010F2EFEE37F2EF02D0F2EFFE191
:100112008F2EF02D16E40F2EF3E29F2EF02DDFE44A
:100122000F2EF8E2AF2EF02D0F2EF8E5BF2EF02D98
:100132000F2EFCE2CF2EF02DCEE50F2EFFE2DF2EAA
:10014200F02D0F2EF9E6EF2EF02D0F2EF5E3FF2EF8
:10015200F02D06E70E94CF018823E1F390E0FC0135
:10016200E154F109E931F105A8F7EC5CFF4F0C9479
:10017200D80178948FEE87BD88E788BD2FEF8DEB8D
:100182009AE0215080409040E1F700C000008FB714
:100192008F778FBF2D98DECF789484ED87BD8AE666
:1001A20088BD2FEF8DEB9AE0215080409040E1F71F
:1001B20000C000008FB78F778FBF2D98CBCF789478
:1001C2008CEB87BDC8BD2FEF8DEB9AE021508040AC
:1001D2009040E1F700C000008FB78F778FBF2D9856
:1001E200B9CF789482EB87BD89E588BD2FEF8DEB7F
:1001F2009AE0215080409040E1F700C000008FB7A4
:100202008F778FBF2D98A6CF78948EE987BDD8BD02
:100212002FEF8DEB9AE0215080409040E1F700C033
:1002220000008FB78F778FBF2D9894CF78948CE88A
:1002320087BD18BD2FEF8DEB9AE021508040904092
:10024200E1F700C000008FB78F778FBF2D9882CF64
:1002520078948EE787BD8FE388BD2FEF8DEB9AE010
:10026200215080409040E1F700C000008FB78F77A7
:100272008FBF2D986FCF789407BD8BE388BD2FEF8A
:100282008DEB9AE0215080409040E1F700C00000E1
:100292008FB78F778FBF2D985DCF7894E7BCF8BC6E
:1002A2002FEF8DEB9AE0215080409040E1F700C0A3
:1002B20000008FB78F778FBF2D984CCF7894C7BD32
:1002C200D8BC2FEF8DEB9AE0215080409040E1F7AF
:1002D20000C000008FB78F778FBF2D983BCF7894E7
:1002E200B7BCC8BC2FEF8DEB9AE021508040904004
:1002F200E1F700C000008FB78F778FBF2D982ACF0C
:100302007894D7BDA8BC2FEF8DEB9AE021508040A6
:100312009040E1F700C000008FB78F778FBF2D9814
:1003220019CF789417BD98BC2FEF8DEB9AE021502E
:1003320080409040E1F700C000008FB78F778FBFF9
:100342002D9808CF789477BC88BC2FEF8DEB9AE07C
:10035200215080409040E1F700C000008FB78F77B6
:060362008FBF2D98F7CEBD
:10036800519A50981092C00088E98093C10086E0A5
:100378008093C2001092C50087E68093C400089558
:10038800EC010E94E7010E94E601CE010E94E8010B
:06039800CE010E94E40109
:10039E008091C00088231CF48091C600089580E0EF
:0203AE000895B0
:0C03B000EE0FFF1F0590F491E02D099462
:0403BC000C9400009D
:0403C0002D9A1895C5
:0403C4002D981895C3
:0403C8000E94570038
:0203CC00089592
:0203CE00089590
:0203D00008958E
:00000001FF
