:100000000C946F000C94FF010C94FF010C94FF0101
:100010000C94FF010C94FF010C94FF010C94FF0160
:100020000C94FF010C94FF010C94FF010C94FF0150
:100030000C94FF010C94FF010C94FF010C94FF0140
:100040000C94FF010C94FF010C94FF010C94FF0130
:100050000C94FF010C9401020C9403020C94FF0118
:100060000C94FF010C94FF010C94FF010C94FF0110
:100070000C94FF010C94FF010C94FF010C94FF0100
:100080000C94FF010C94FF010C94FF010C94FF01F0
:100090000C94FF010C94FF010C94FF010C94FF01E0
:1000A0000C94FF010C94FF010C94FF015F01CE0042
:1000B000CE00820103019301A401B501CE00C60167
:1000C000CE00CE00CE00CE00CE00CE00DD00150169
:1000D000710128014C01CE00F000CE003A0111243C
:1000E0001FBECFEFDAE0DEBFCDBF0E947B000C94D5
:0600F000E501F894FFCFCA
:1000F600259A539A529885B5846085BD85B58D7FBE
:1001060085BD85B58E7F85BD16BC85B5877F85BDCA
:1001160084B5826084BD84B584BD84B58F7B84BD7F
:1001260084B58F7784BD84B58F7E84BD84B58F7D7D
:1001360084BDEEE6F0E08081826080838081846009
:1001460080830E94D7010F2EFEE37F2EF02D0F2E07
:10015600FFE18F2EF02D16E40F2EF3E29F2EF02DE9
:10016600DFE40F2EF8E2AF2EF02D0F2EF8E5BF2EAE
:10017600F02D0F2EFCE2CF2EF02DCEE50F2EFFE256
:10018600DF2EF02D0F2EF9E6EF2EF02D0F2EF5E3D4
:10019600FF2EF02D06E70E94F0018823E1F390E0A0
:1001A600FC01E154F109E931F105A8F7EA5AFF4FDC
:1001B6000C94F90178948FEE87BD88E788BD2FEF00
:1001C6008EE595E0215080409040E1F700C00000A8
:1001D6008FB78F778FBF2D98DECF789484ED87BD4C
:1001E6008AE688BD2FEF8EE595E02150804090404D
:1001F600E1F700C000008FB78F778FBF2D98CBCF68
:1002060078948CEB87BDC8BD2FEF8EE595E0215025
:1002160080409040E1F700C000008FB78F778FBF16
:100226002D98B9CF789482EB87BD89E588BD2FEFED
:100236008EE595E0215080409040E1F700C0000037
:100246008FB78F778FBF2D98A6CF78948EE987BD0D
:10025600D8BD2FEF8EE595E0215080409040E1F724
:1002660000C000008FB78F778FBF2D9894CF7894FA
:100276008CE887BD18BD2FEF8EE595E021508040B4
:100286009040E1F700C000008FB78F778FBF2D98A1
:1002960082CF78948EE787BD8FE388BD2FEF8EE5FA
:1002A60095E0215080409040E1F700C000008FB7F4
:1002B6008F778FBF2D986FCF789407BD8BE388BD5E
:1002C6002FEF8EE595E0215080409040E1F700C089
:1002D60000008FB78F778FBF2D985DCF7894E7BCDE
:1002E600F8BC2FEF8EE595E0215080409040E1F775
:1002F60000C000008FB78F778FBF2D984CCF7894B2
:10030600C7BDD8BC2FEF8EE595E0215080409040C8
:10031600E1F700C000008FB78F778FBF2D983BCFD6
:100326007894B7BCC8BC2FEF8EE595E0215080408D
:100336009040E1F700C000008FB78F778FBF2D98F0
:100346002ACF7894D7BDA8BC2FEF8EE595E0215033
:1003560080409040E1F700C000008FB78F778FBFD5
:100366002D9819CF789417BD98BC2FEF8EE595E0A0
:10037600215080409040E1F700C000008FB78F7792
:100386008FBF2D9808CF789477BC88BC2FEF8EE569
:1003960095E0215080409040E1F700C000008FB703
:0803A6008F778FBF2D98F7CE71
:1003AE001092C80088E98093C90086E08093CA0045
:0C03BE001092CD0083E38093CC000895E2
:1003CA00EC010E9408020E940702CE010E94090263
:0603DA00CE010E940502A5
:1003E0008091C80088231CF48091CE00089580E09D
:0203F00008956E
:0C03F200EE0FFF1F0590F491E02D099420
:0403FE000C9400005B
:040402002D9A189582
:040406002D98189580
:04040A000E947900D3
:02040E0008954F
:0204100008954D
:0204120008954B
:00000001FF
